{
  "_format": "hh-sol-artifact-1",
  "contractName": "TestContract",
  "sourceName": "contracts/TestContract.sol",
  "abi": [
    {
      "inputs": [],
      "stateMutability": "nonpayable",
      "type": "constructor"
    },
    {
      "inputs": [],
      "name": "getOwner",
      "outputs": [
        {
          "internalType": "address",
          "name": "",
          "type": "address"
        }
      ],
      "stateMutability": "view",
      "type": "function"
    },
    {
      "inputs": [],
      "name": "getTokenName",
      "outputs": [
        {
          "internalType": "string",
          "name": "",
          "type": "string"
        }
      ],
      "stateMutability": "view",
      "type": "function"
    },
    {
      "inputs": [],
      "name": "getTotalSupply",
      "outputs": [
        {
          "internalType": "uint16",
          "name": "",
          "type": "uint16"
        }
      ],
      "stateMutability": "view",
      "type": "function"
    },
    {
      "inputs": [],
      "name": "owner",
      "outputs": [
        {
          "internalType": "address",
          "name": "",
          "type": "address"
        }
      ],
      "stateMutability": "view",
      "type": "function"
    },
    {
      "inputs": [],
      "name": "tokenName",
      "outputs": [
        {
          "internalType": "string",
          "name": "",
          "type": "string"
        }
      ],
      "stateMutability": "view",
      "type": "function"
    },
    {
      "inputs": [],
      "name": "totalSupply",
      "outputs": [
        {
          "internalType": "uint16",
          "name": "",
          "type": "uint16"
        }
      ],
      "stateMutability": "view",
      "type": "function"
    }
  ],
  "bytecode": "0x608060405234801561001057600080fd5b5061012c6000806101000a81548161ffff021916908361ffff16021790555033600060026101000a81548173ffffffffffffffffffffffffffffffffffffffff021916908373ffffffffffffffffffffffffffffffffffffffff1602179055506040518060400160405280600a81526020017f546f6b656e204e616d6500000000000000000000000000000000000000000000815250600190805190602001906100bb9291906100c1565b506101c5565b8280546100cd90610164565b90600052602060002090601f0160209004810192826100ef5760008555610136565b82601f1061010857805160ff1916838001178555610136565b82800160010185558215610136579182015b8281111561013557825182559160200191906001019061011a565b5b5090506101439190610147565b5090565b5b80821115610160576000816000905550600101610148565b5090565b6000600282049050600182168061017c57607f821691505b602082108114156101905761018f610196565b5b50919050565b7f4e487b7100000000000000000000000000000000000000000000000000000000600052602260045260246000fd5b610499806101d46000396000f3fe608060405234801561001057600080fd5b50600436106100625760003560e01c806318160ddd146100675780636c02a93114610085578063862b092b146100a3578063893d20e8146100c15780638da5cb5b146100df578063c4e41b22146100fd575b600080fd5b61006f61011b565b60405161007c9190610347565b60405180910390f35b61008d61012d565b60405161009a9190610325565b60405180910390f35b6100ab6101bb565b6040516100b89190610325565b60405180910390f35b6100c961024d565b6040516100d6919061030a565b60405180910390f35b6100e7610276565b6040516100f4919061030a565b60405180910390f35b61010561029c565b6040516101129190610347565b60405180910390f35b60008054906101000a900461ffff1681565b6001805461013a906103f1565b80601f0160208091040260200160405190810160405280929190818152602001828054610166906103f1565b80156101b35780601f10610188576101008083540402835291602001916101b3565b820191906000526020600020905b81548152906001019060200180831161019657829003601f168201915b505050505081565b6060600180546101ca906103f1565b80601f01602080910402602001604051908101604052809291908181526020018280546101f6906103f1565b80156102435780601f1061021857610100808354040283529160200191610243565b820191906000526020600020905b81548152906001019060200180831161022657829003601f168201915b5050505050905090565b60008060029054906101000a900473ffffffffffffffffffffffffffffffffffffffff16905090565b600060029054906101000a900473ffffffffffffffffffffffffffffffffffffffff1681565b60008060009054906101000a900461ffff16905090565b6102bc8161037e565b82525050565b60006102cd82610362565b6102d7818561036d565b93506102e78185602086016103be565b6102f081610452565b840191505092915050565b61030481610390565b82525050565b600060208201905061031f60008301846102b3565b92915050565b6000602082019050818103600083015261033f81846102c2565b905092915050565b600060208201905061035c60008301846102fb565b92915050565b600081519050919050565b600082825260208201905092915050565b60006103898261039e565b9050919050565b600061ffff82169050919050565b600073ffffffffffffffffffffffffffffffffffffffff82169050919050565b60005b838110156103dc5780820151818401526020810190506103c1565b838111156103eb576000848401525b50505050565b6000600282049050600182168061040957607f821691505b6020821081141561041d5761041c610423565b5b50919050565b7f4e487b7100000000000000000000000000000000000000000000000000000000600052602260045260246000fd5b6000601f19601f830116905091905056fea26469706673582212205d48096a143989caf903f6356003f12196a11dbee17daebb015691406028d2c064736f6c63430008040033",
  "linkReferences": {},
  "deployedLinkReferences": {}
}