{
  "_format": "hh-sol-artifact-1",
  "contractName": "BEP20",
  "sourceName": "contracts/BEP20.sol",
  "abi": [
    {
      "inputs": [
        {
          "internalType": "string",
          "name": "name_",
          "type": "string"
        },
        {
          "internalType": "string",
          "name": "symbol_",
          "type": "string"
        }
      ],
      "stateMutability": "nonpayable",
      "type": "constructor"
    },
    {
      "anonymous": false,
      "inputs": [
        {
          "indexed": true,
          "internalType": "address",
          "name": "owner",
          "type": "address"
        },
        {
          "indexed": true,
          "internalType": "address",
          "name": "spender",
          "type": "address"
        },
        {
          "indexed": false,
          "internalType": "uint256",
          "name": "value",
          "type": "uint256"
        }
      ],
      "name": "Approval",
      "type": "event"
    },
    {
      "anonymous": false,
      "inputs": [
        {
          "indexed": true,
          "internalType": "address",
          "name": "_owner",
          "type": "address"
        },
        {
          "indexed": true,
          "internalType": "address",
          "name": "_spender",
          "type": "address"
        },
        {
          "indexed": false,
          "internalType": "uint256",
          "name": "_oldValue",
          "type": "uint256"
        },
        {
          "indexed": false,
          "internalType": "uint256",
          "name": "_value",
          "type": "uint256"
        }
      ],
      "name": "Approved",
      "type": "event"
    },
    {
      "anonymous": false,
      "inputs": [
        {
          "indexed": true,
          "internalType": "address",
          "name": "by",
          "type": "address"
        },
        {
          "indexed": true,
          "internalType": "address",
          "name": "from",
          "type": "address"
        },
        {
          "indexed": false,
          "internalType": "uint256",
          "name": "value",
          "type": "uint256"
        }
      ],
      "name": "Burnt",
      "type": "event"
    },
    {
      "anonymous": false,
      "inputs": [
        {
          "indexed": true,
          "internalType": "address",
          "name": "from",
          "type": "address"
        },
        {
          "indexed": true,
          "internalType": "address",
          "name": "to",
          "type": "address"
        },
        {
          "indexed": false,
          "internalType": "uint256",
          "name": "value",
          "type": "uint256"
        }
      ],
      "name": "Minted",
      "type": "event"
    },
    {
      "anonymous": false,
      "inputs": [
        {
          "indexed": false,
          "internalType": "address",
          "name": "account",
          "type": "address"
        }
      ],
      "name": "Paused",
      "type": "event"
    },
    {
      "anonymous": false,
      "inputs": [
        {
          "indexed": true,
          "internalType": "address",
          "name": "from",
          "type": "address"
        },
        {
          "indexed": true,
          "internalType": "address",
          "name": "to",
          "type": "address"
        },
        {
          "indexed": false,
          "internalType": "uint256",
          "name": "value",
          "type": "uint256"
        }
      ],
      "name": "Transfer",
      "type": "event"
    },
    {
      "anonymous": false,
      "inputs": [
        {
          "indexed": true,
          "internalType": "address",
          "name": "_by",
          "type": "address"
        },
        {
          "indexed": true,
          "internalType": "address",
          "name": "_from",
          "type": "address"
        },
        {
          "indexed": true,
          "internalType": "address",
          "name": "_to",
          "type": "address"
        },
        {
          "indexed": false,
          "internalType": "uint256",
          "name": "_value",
          "type": "uint256"
        }
      ],
      "name": "Transferred",
      "type": "event"
    },
    {
      "anonymous": false,
      "inputs": [
        {
          "indexed": false,
          "internalType": "address",
          "name": "account",
          "type": "address"
        }
      ],
      "name": "Unpaused",
      "type": "event"
    },
    {
      "inputs": [],
      "name": "admin",
      "outputs": [
        {
          "internalType": "address",
          "name": "",
          "type": "address"
        }
      ],
      "stateMutability": "view",
      "type": "function"
    },
    {
      "inputs": [
        {
          "internalType": "address",
          "name": "_owner",
          "type": "address"
        },
        {
          "internalType": "address",
          "name": "spender",
          "type": "address"
        }
      ],
      "name": "allowance",
      "outputs": [
        {
          "internalType": "uint256",
          "name": "",
          "type": "uint256"
        }
      ],
      "stateMutability": "view",
      "type": "function"
    },
    {
      "inputs": [
        {
          "internalType": "address",
          "name": "spender",
          "type": "address"
        },
        {
          "internalType": "uint256",
          "name": "amount",
          "type": "uint256"
        }
      ],
      "name": "approve",
      "outputs": [
        {
          "internalType": "bool",
          "name": "",
          "type": "bool"
        }
      ],
      "stateMutability": "nonpayable",
      "type": "function"
    },
    {
      "inputs": [
        {
          "internalType": "address",
          "name": "account",
          "type": "address"
        }
      ],
      "name": "balanceOf",
      "outputs": [
        {
          "internalType": "uint256",
          "name": "",
          "type": "uint256"
        }
      ],
      "stateMutability": "view",
      "type": "function"
    },
    {
      "inputs": [],
      "name": "burner",
      "outputs": [
        {
          "internalType": "address",
          "name": "",
          "type": "address"
        }
      ],
      "stateMutability": "view",
      "type": "function"
    },
    {
      "inputs": [],
      "name": "decimals",
      "outputs": [
        {
          "internalType": "uint8",
          "name": "",
          "type": "uint8"
        }
      ],
      "stateMutability": "view",
      "type": "function"
    },
    {
      "inputs": [
        {
          "internalType": "address",
          "name": "spender",
          "type": "address"
        },
        {
          "internalType": "uint256",
          "name": "subtractedValue",
          "type": "uint256"
        }
      ],
      "name": "decreaseAllowance",
      "outputs": [
        {
          "internalType": "bool",
          "name": "",
          "type": "bool"
        }
      ],
      "stateMutability": "nonpayable",
      "type": "function"
    },
    {
      "inputs": [
        {
          "internalType": "address",
          "name": "spender",
          "type": "address"
        },
        {
          "internalType": "uint256",
          "name": "addedValue",
          "type": "uint256"
        }
      ],
      "name": "increaseAllowance",
      "outputs": [
        {
          "internalType": "bool",
          "name": "",
          "type": "bool"
        }
      ],
      "stateMutability": "nonpayable",
      "type": "function"
    },
    {
      "inputs": [],
      "name": "minter",
      "outputs": [
        {
          "internalType": "address",
          "name": "",
          "type": "address"
        }
      ],
      "stateMutability": "view",
      "type": "function"
    },
    {
      "inputs": [],
      "name": "name",
      "outputs": [
        {
          "internalType": "string",
          "name": "",
          "type": "string"
        }
      ],
      "stateMutability": "view",
      "type": "function"
    },
    {
      "inputs": [
        {
          "internalType": "address",
          "name": "_newAdmin",
          "type": "address"
        }
      ],
      "name": "newAdmin",
      "outputs": [],
      "stateMutability": "nonpayable",
      "type": "function"
    },
    {
      "inputs": [
        {
          "internalType": "address",
          "name": "_newBurner",
          "type": "address"
        }
      ],
      "name": "newBurner",
      "outputs": [],
      "stateMutability": "nonpayable",
      "type": "function"
    },
    {
      "inputs": [
        {
          "internalType": "address",
          "name": "_newMinter",
          "type": "address"
        }
      ],
      "name": "newMinter",
      "outputs": [],
      "stateMutability": "nonpayable",
      "type": "function"
    },
    {
      "inputs": [],
      "name": "pause",
      "outputs": [],
      "stateMutability": "nonpayable",
      "type": "function"
    },
    {
      "inputs": [],
      "name": "paused",
      "outputs": [
        {
          "internalType": "bool",
          "name": "",
          "type": "bool"
        }
      ],
      "stateMutability": "view",
      "type": "function"
    },
    {
      "inputs": [],
      "name": "symbol",
      "outputs": [
        {
          "internalType": "string",
          "name": "",
          "type": "string"
        }
      ],
      "stateMutability": "view",
      "type": "function"
    },
    {
      "inputs": [],
      "name": "totalSupply",
      "outputs": [
        {
          "internalType": "uint256",
          "name": "",
          "type": "uint256"
        }
      ],
      "stateMutability": "view",
      "type": "function"
    },
    {
      "inputs": [
        {
          "internalType": "address",
          "name": "recipient",
          "type": "address"
        },
        {
          "internalType": "uint256",
          "name": "amount",
          "type": "uint256"
        }
      ],
      "name": "transfer",
      "outputs": [
        {
          "internalType": "bool",
          "name": "",
          "type": "bool"
        }
      ],
      "stateMutability": "nonpayable",
      "type": "function"
    },
    {
      "inputs": [
        {
          "internalType": "address",
          "name": "sender",
          "type": "address"
        },
        {
          "internalType": "address",
          "name": "recipient",
          "type": "address"
        },
        {
          "internalType": "uint256",
          "name": "amount",
          "type": "uint256"
        }
      ],
      "name": "transferFrom",
      "outputs": [
        {
          "internalType": "bool",
          "name": "",
          "type": "bool"
        }
      ],
      "stateMutability": "nonpayable",
      "type": "function"
    },
    {
      "inputs": [],
      "name": "unpause",
      "outputs": [],
      "stateMutability": "nonpayable",
      "type": "function"
    }
  ],
  "bytecode": "0x60806040523480156200001157600080fd5b50604051620020f9380380620020f9833981810160405281019062000037919062000271565b620000476200014760201b60201c565b6000806101000a81548173ffffffffffffffffffffffffffffffffffffffff021916908373ffffffffffffffffffffffffffffffffffffffff160217905550620000966200014760201b60201c565b600160006101000a81548173ffffffffffffffffffffffffffffffffffffffff021916908373ffffffffffffffffffffffffffffffffffffffff1602179055506000600260146101000a81548160ff0219169083151502179055508160069080519060200190620001099291906200014f565b508060079080519060200190620001229291906200014f565b506012600860006101000a81548160ff021916908360ff160217905550505062000454565b600033905090565b8280546200015d9062000379565b90600052602060002090601f016020900481019282620001815760008555620001cd565b82601f106200019c57805160ff1916838001178555620001cd565b82800160010185558215620001cd579182015b82811115620001cc578251825591602001919060010190620001af565b5b509050620001dc9190620001e0565b5090565b5b80821115620001fb576000816000905550600101620001e1565b5090565b60006200021662000210846200030d565b620002e4565b9050828152602081018484840111156200022f57600080fd5b6200023c84828562000343565b509392505050565b600082601f8301126200025657600080fd5b815162000268848260208601620001ff565b91505092915050565b600080604083850312156200028557600080fd5b600083015167ffffffffffffffff811115620002a057600080fd5b620002ae8582860162000244565b925050602083015167ffffffffffffffff811115620002cc57600080fd5b620002da8582860162000244565b9150509250929050565b6000620002f062000303565b9050620002fe8282620003af565b919050565b6000604051905090565b600067ffffffffffffffff8211156200032b576200032a62000414565b5b620003368262000443565b9050602081019050919050565b60005b838110156200036357808201518184015260208101905062000346565b8381111562000373576000848401525b50505050565b600060028204905060018216806200039257607f821691505b60208210811415620003a957620003a8620003e5565b5b50919050565b620003ba8262000443565b810181811067ffffffffffffffff82111715620003dc57620003db62000414565b5b80604052505050565b7f4e487b7100000000000000000000000000000000000000000000000000000000600052602260045260246000fd5b7f4e487b7100000000000000000000000000000000000000000000000000000000600052604160045260246000fd5b6000601f19601f8301169050919050565b611c9580620004646000396000f3fe608060405234801561001057600080fd5b506004361061012c5760003560e01c80635c975abb116100ad578063a6ba31c111610071578063a6ba31c114610323578063a9059cbb1461033f578063dd62ed3e1461036f578063f840f72b1461039f578063f851a440146103bb5761012c565b80635c975abb1461027d57806370a082311461029b5780638456cb59146102cb57806395d89b41146102d5578063a457c2d7146102f35761012c565b806327810b6e116100f457806327810b6e146101eb578063313ce5671461020957806339509351146102275780633f4ba83a1461025757806357341912146102615761012c565b806306fdde0314610131578063075461721461014f578063095ea7b31461016d57806318160ddd1461019d57806323b872dd146101bb575b600080fd5b6101396103d9565b60405161014691906116a3565b60405180910390f35b61015761046b565b604051610164919061166d565b60405180910390f35b61018760048036038101906101829190611481565b610491565b6040516101949190611688565b60405180910390f35b6101a56104f7565b6040516101b291906117e5565b60405180910390f35b6101d560048036038101906101d09190611432565b610501565b6040516101e29190611688565b60405180910390f35b6101f3610641565b604051610200919061166d565b60405180910390f35b610211610667565b60405161021e9190611800565b60405180910390f35b610241600480360381019061023c9190611481565b61067e565b60405161024e9190611688565b60405180910390f35b61025f610772565b005b61027b600480360381019061027691906113cd565b610873565b005b610285610950565b6040516102929190611688565b60405180910390f35b6102b560048036038101906102b091906113cd565b610967565b6040516102c291906117e5565b60405180910390f35b6102d36109b0565b005b6102dd610ab2565b6040516102ea91906116a3565b60405180910390f35b61030d60048036038101906103089190611481565b610b44565b60405161031a9190611688565b60405180910390f35b61033d600480360381019061033891906113cd565b610c78565b005b61035960048036038101906103549190611481565b610d54565b6040516103669190611688565b60405180910390f35b610389600480360381019061038491906113f6565b610dba565b60405161039691906117e5565b60405180910390f35b6103b960048036038101906103b491906113cd565b610e41565b005b6103c3610f1e565b6040516103d0919061166d565b60405180910390f35b6060600680546103e890611915565b80601f016020809104026020016040519081016040528092919081815260200182805461041490611915565b80156104615780601f1061043657610100808354040283529160200191610461565b820191906000526020600020905b81548152906001019060200180831161044457829003601f168201915b5050505050905090565b600160009054906101000a900473ffffffffffffffffffffffffffffffffffffffff1681565b600061049b610950565b156104db576040517f08c379a00000000000000000000000000000000000000000000000000000000081526004016104d290611705565b60405180910390fd5b6104ed6104e6610f42565b8484610f4a565b6001905092915050565b6000600554905090565b600061050b610950565b1561054b576040517f08c379a000000000000000000000000000000000000000000000000000000000815260040161054290611705565b60405180910390fd5b610556848484611115565b6000600460008673ffffffffffffffffffffffffffffffffffffffff1673ffffffffffffffffffffffffffffffffffffffff16815260200190815260200160002060006105a1610f42565b73ffffffffffffffffffffffffffffffffffffffff1673ffffffffffffffffffffffffffffffffffffffff16815260200190815260200160002054905082811015610621576040517f08c379a000000000000000000000000000000000000000000000000000000000815260040161061890611745565b60405180910390fd5b6106358561062d610f42565b858403610f4a565b60019150509392505050565b600260009054906101000a900473ffffffffffffffffffffffffffffffffffffffff1681565b6000600860009054906101000a900460ff16905090565b6000610688610950565b156106c8576040517f08c379a00000000000000000000000000000000000000000000000000000000081526004016106bf90611705565b60405180910390fd5b6107686106d3610f42565b8484600460006106e1610f42565b73ffffffffffffffffffffffffffffffffffffffff1673ffffffffffffffffffffffffffffffffffffffff16815260200190815260200160002060008873ffffffffffffffffffffffffffffffffffffffff1673ffffffffffffffffffffffffffffffffffffffff168152602001908152602001600020546107639190611837565b610f4a565b6001905092915050565b61077a610950565b6107b9576040517f08c379a00000000000000000000000000000000000000000000000000000000081526004016107b0906116c5565b60405180910390fd5b60008054906101000a900473ffffffffffffffffffffffffffffffffffffffff1673ffffffffffffffffffffffffffffffffffffffff166107f8610f42565b73ffffffffffffffffffffffffffffffffffffffff161461081857600080fd5b6000600260146101000a81548160ff0219169083151502179055507f5db9ee0a495bf2e6ff9c91a7834c1ba4fdd244a5e8aa4e537bd38aeae4b073aa61085c610f42565b604051610869919061166d565b60405180910390a1565b60008054906101000a900473ffffffffffffffffffffffffffffffffffffffff1673ffffffffffffffffffffffffffffffffffffffff166108b2610f42565b73ffffffffffffffffffffffffffffffffffffffff16146108d257600080fd5b600073ffffffffffffffffffffffffffffffffffffffff168173ffffffffffffffffffffffffffffffffffffffff16141561090c57600080fd5b80600160006101000a81548173ffffffffffffffffffffffffffffffffffffffff021916908373ffffffffffffffffffffffffffffffffffffffff16021790555050565b6000600260149054906101000a900460ff16905090565b6000600360008373ffffffffffffffffffffffffffffffffffffffff1673ffffffffffffffffffffffffffffffffffffffff168152602001908152602001600020549050919050565b6109b8610950565b156109f8576040517f08c379a00000000000000000000000000000000000000000000000000000000081526004016109ef90611705565b60405180910390fd5b60008054906101000a900473ffffffffffffffffffffffffffffffffffffffff1673ffffffffffffffffffffffffffffffffffffffff16610a37610f42565b73ffffffffffffffffffffffffffffffffffffffff1614610a5757600080fd5b6001600260146101000a81548160ff0219169083151502179055507f62e78cea01bee320cd4e420270b5ea74000d11b0c9f74754ebdbfc544b05a258610a9b610f42565b604051610aa8919061166d565b60405180910390a1565b606060078054610ac190611915565b80601f0160208091040260200160405190810160405280929190818152602001828054610aed90611915565b8015610b3a5780601f10610b0f57610100808354040283529160200191610b3a565b820191906000526020600020905b815481529060010190602001808311610b1d57829003601f168201915b5050505050905090565b6000610b4e610950565b15610b8e576040517f08c379a0000000000000000000000000000000000000000000000000000000008152600401610b8590611705565b60405180910390fd5b600060046000610b9c610f42565b73ffffffffffffffffffffffffffffffffffffffff1673ffffffffffffffffffffffffffffffffffffffff16815260200190815260200160002060008573ffffffffffffffffffffffffffffffffffffffff1673ffffffffffffffffffffffffffffffffffffffff16815260200190815260200160002054905082811015610c59576040517f08c379a0000000000000000000000000000000000000000000000000000000008152600401610c5090611785565b60405180910390fd5b610c6d610c64610f42565b85858403610f4a565b600191505092915050565b60008054906101000a900473ffffffffffffffffffffffffffffffffffffffff1673ffffffffffffffffffffffffffffffffffffffff16610cb7610f42565b73ffffffffffffffffffffffffffffffffffffffff1614610cd757600080fd5b600073ffffffffffffffffffffffffffffffffffffffff168173ffffffffffffffffffffffffffffffffffffffff161415610d1157600080fd5b806000806101000a81548173ffffffffffffffffffffffffffffffffffffffff021916908373ffffffffffffffffffffffffffffffffffffffff16021790555050565b6000610d5e610950565b15610d9e576040517f08c379a0000000000000000000000000000000000000000000000000000000008152600401610d9590611705565b60405180910390fd5b610db0610da9610f42565b8484611115565b6001905092915050565b6000600460008473ffffffffffffffffffffffffffffffffffffffff1673ffffffffffffffffffffffffffffffffffffffff16815260200190815260200160002060008373ffffffffffffffffffffffffffffffffffffffff1673ffffffffffffffffffffffffffffffffffffffff16815260200190815260200160002054905092915050565b60008054906101000a900473ffffffffffffffffffffffffffffffffffffffff1673ffffffffffffffffffffffffffffffffffffffff16610e80610f42565b73ffffffffffffffffffffffffffffffffffffffff1614610ea057600080fd5b600073ffffffffffffffffffffffffffffffffffffffff168173ffffffffffffffffffffffffffffffffffffffff161415610eda57600080fd5b80600260006101000a81548173ffffffffffffffffffffffffffffffffffffffff021916908373ffffffffffffffffffffffffffffffffffffffff16021790555050565b60008054906101000a900473ffffffffffffffffffffffffffffffffffffffff1681565b600033905090565b600073ffffffffffffffffffffffffffffffffffffffff168373ffffffffffffffffffffffffffffffffffffffff161415610fba576040517f08c379a0000000000000000000000000000000000000000000000000000000008152600401610fb1906116e5565b60405180910390fd5b600073ffffffffffffffffffffffffffffffffffffffff168273ffffffffffffffffffffffffffffffffffffffff16141561102a576040517f08c379a000000000000000000000000000000000000000000000000000000000815260040161102190611725565b60405180910390fd5b80600460008573ffffffffffffffffffffffffffffffffffffffff1673ffffffffffffffffffffffffffffffffffffffff16815260200190815260200160002060008473ffffffffffffffffffffffffffffffffffffffff1673ffffffffffffffffffffffffffffffffffffffff168152602001908152602001600020819055508173ffffffffffffffffffffffffffffffffffffffff168373ffffffffffffffffffffffffffffffffffffffff167f8c5be1e5ebec7d5bd14f71427d1e84f3dd0314c0f7b2291e5b200ac8c7c3b9258360405161110891906117e5565b60405180910390a3505050565b600073ffffffffffffffffffffffffffffffffffffffff168373ffffffffffffffffffffffffffffffffffffffff161415611185576040517f08c379a000000000000000000000000000000000000000000000000000000000815260040161117c90611765565b60405180910390fd5b600073ffffffffffffffffffffffffffffffffffffffff168273ffffffffffffffffffffffffffffffffffffffff1614156111f5576040517f08c379a00000000000000000000000000000000000000000000000000000000081526004016111ec906117c5565b60405180910390fd5b611200838383611399565b6000600360008573ffffffffffffffffffffffffffffffffffffffff1673ffffffffffffffffffffffffffffffffffffffff16815260200190815260200160002054905081811015611287576040517f08c379a000000000000000000000000000000000000000000000000000000000815260040161127e906117a5565b60405180910390fd5b818103600360008673ffffffffffffffffffffffffffffffffffffffff1673ffffffffffffffffffffffffffffffffffffffff1681526020019081526020016000208190555081600360008573ffffffffffffffffffffffffffffffffffffffff1673ffffffffffffffffffffffffffffffffffffffff168152602001908152602001600020600082825461131c9190611837565b925050819055508273ffffffffffffffffffffffffffffffffffffffff168473ffffffffffffffffffffffffffffffffffffffff167fddf252ad1be2c89b69c2b068fc378daa952ba7f163c4a11628f55a4df523b3ef8460405161138091906117e5565b60405180910390a361139384848461139e565b50505050565b505050565b505050565b6000813590506113b281611c31565b92915050565b6000813590506113c781611c48565b92915050565b6000602082840312156113df57600080fd5b60006113ed848285016113a3565b91505092915050565b6000806040838503121561140957600080fd5b6000611417858286016113a3565b9250506020611428858286016113a3565b9150509250929050565b60008060006060848603121561144757600080fd5b6000611455868287016113a3565b9350506020611466868287016113a3565b9250506040611477868287016113b8565b9150509250925092565b6000806040838503121561149457600080fd5b60006114a2858286016113a3565b92505060206114b3858286016113b8565b9150509250929050565b6114c68161188d565b82525050565b6114d58161189f565b82525050565b60006114e68261181b565b6114f08185611826565b93506115008185602086016118e2565b611509816119a5565b840191505092915050565b6000611521601483611826565b915061152c826119b6565b602082019050919050565b6000611544602483611826565b915061154f826119df565b604082019050919050565b6000611567601083611826565b915061157282611a2e565b602082019050919050565b600061158a602283611826565b915061159582611a57565b604082019050919050565b60006115ad602883611826565b91506115b882611aa6565b604082019050919050565b60006115d0602583611826565b91506115db82611af5565b604082019050919050565b60006115f3602583611826565b91506115fe82611b44565b604082019050919050565b6000611616602683611826565b915061162182611b93565b604082019050919050565b6000611639602383611826565b915061164482611be2565b604082019050919050565b611658816118cb565b82525050565b611667816118d5565b82525050565b600060208201905061168260008301846114bd565b92915050565b600060208201905061169d60008301846114cc565b92915050565b600060208201905081810360008301526116bd81846114db565b905092915050565b600060208201905081810360008301526116de81611514565b9050919050565b600060208201905081810360008301526116fe81611537565b9050919050565b6000602082019050818103600083015261171e8161155a565b9050919050565b6000602082019050818103600083015261173e8161157d565b9050919050565b6000602082019050818103600083015261175e816115a0565b9050919050565b6000602082019050818103600083015261177e816115c3565b9050919050565b6000602082019050818103600083015261179e816115e6565b9050919050565b600060208201905081810360008301526117be81611609565b9050919050565b600060208201905081810360008301526117de8161162c565b9050919050565b60006020820190506117fa600083018461164f565b92915050565b6000602082019050611815600083018461165e565b92915050565b600081519050919050565b600082825260208201905092915050565b6000611842826118cb565b915061184d836118cb565b9250827fffffffffffffffffffffffffffffffffffffffffffffffffffffffffffffffff0382111561188257611881611947565b5b828201905092915050565b6000611898826118ab565b9050919050565b60008115159050919050565b600073ffffffffffffffffffffffffffffffffffffffff82169050919050565b6000819050919050565b600060ff82169050919050565b60005b838110156119005780820151818401526020810190506118e5565b8381111561190f576000848401525b50505050565b6000600282049050600182168061192d57607f821691505b6020821081141561194157611940611976565b5b50919050565b7f4e487b7100000000000000000000000000000000000000000000000000000000600052601160045260246000fd5b7f4e487b7100000000000000000000000000000000000000000000000000000000600052602260045260246000fd5b6000601f19601f8301169050919050565b7f5061757361626c653a206e6f7420706175736564000000000000000000000000600082015250565b7f42455032303a20417070726f76652066726f6d20746865207a65726f2061646460008201527f7265737300000000000000000000000000000000000000000000000000000000602082015250565b7f5061757361626c653a2070617573656400000000000000000000000000000000600082015250565b7f42455032303a20417070726f766520746f20746865207a65726f20616464726560008201527f7373000000000000000000000000000000000000000000000000000000000000602082015250565b7f42455032303a205472616e7366657220616d6f756e742065786365656473206160008201527f6c6c6f77616e6365000000000000000000000000000000000000000000000000602082015250565b7f42455032303a205472616e736665722066726f6d20746865207a65726f20616460008201527f6472657373000000000000000000000000000000000000000000000000000000602082015250565b7f42455032303a2044656372656173656420616c6c6f77616e63652062656c6f7760008201527f207a65726f000000000000000000000000000000000000000000000000000000602082015250565b7f42455032303a205472616e7366657220616d6f756e742065786365656473206260008201527f616c616e63650000000000000000000000000000000000000000000000000000602082015250565b7f42455032303a205472616e7366657220746f20746865207a65726f206164647260008201527f6573730000000000000000000000000000000000000000000000000000000000602082015250565b611c3a8161188d565b8114611c4557600080fd5b50565b611c51816118cb565b8114611c5c57600080fd5b5056fea2646970667358221220d82f94e3ed07a204b44e408a67799bb8c24f82b57fc9177ec030f8697439baa264736f6c63430008040033",
  "linkReferences": {},
  "deployedLinkReferences": {}
}