{
  "_format": "hh-sol-artifact-1",
  "contractName": "NBCoin",
  "sourceName": "contracts/NBCoin.sol",
  "abi": [
    {
      "inputs": [],
      "stateMutability": "nonpayable",
      "type": "constructor"
    },
    {
      "anonymous": false,
      "inputs": [
        {
          "indexed": true,
          "internalType": "address",
          "name": "owner",
          "type": "address"
        },
        {
          "indexed": true,
          "internalType": "address",
          "name": "spender",
          "type": "address"
        },
        {
          "indexed": false,
          "internalType": "uint256",
          "name": "value",
          "type": "uint256"
        }
      ],
      "name": "Approval",
      "type": "event"
    },
    {
      "anonymous": false,
      "inputs": [
        {
          "indexed": true,
          "internalType": "address",
          "name": "_owner",
          "type": "address"
        },
        {
          "indexed": true,
          "internalType": "address",
          "name": "_spender",
          "type": "address"
        },
        {
          "indexed": false,
          "internalType": "uint256",
          "name": "_oldValue",
          "type": "uint256"
        },
        {
          "indexed": false,
          "internalType": "uint256",
          "name": "_value",
          "type": "uint256"
        }
      ],
      "name": "Approved",
      "type": "event"
    },
    {
      "anonymous": false,
      "inputs": [
        {
          "indexed": true,
          "internalType": "address",
          "name": "by",
          "type": "address"
        },
        {
          "indexed": true,
          "internalType": "address",
          "name": "from",
          "type": "address"
        },
        {
          "indexed": false,
          "internalType": "uint256",
          "name": "value",
          "type": "uint256"
        }
      ],
      "name": "Burnt",
      "type": "event"
    },
    {
      "anonymous": false,
      "inputs": [
        {
          "indexed": true,
          "internalType": "address",
          "name": "_of",
          "type": "address"
        },
        {
          "indexed": true,
          "internalType": "address",
          "name": "_from",
          "type": "address"
        },
        {
          "indexed": true,
          "internalType": "address",
          "name": "_to",
          "type": "address"
        }
      ],
      "name": "DelegateChanged",
      "type": "event"
    },
    {
      "anonymous": false,
      "inputs": [
        {
          "indexed": true,
          "internalType": "address",
          "name": "from",
          "type": "address"
        },
        {
          "indexed": true,
          "internalType": "address",
          "name": "to",
          "type": "address"
        },
        {
          "indexed": false,
          "internalType": "uint256",
          "name": "value",
          "type": "uint256"
        }
      ],
      "name": "Minted",
      "type": "event"
    },
    {
      "anonymous": false,
      "inputs": [
        {
          "indexed": false,
          "internalType": "address",
          "name": "account",
          "type": "address"
        }
      ],
      "name": "Paused",
      "type": "event"
    },
    {
      "anonymous": false,
      "inputs": [
        {
          "indexed": true,
          "internalType": "address",
          "name": "from",
          "type": "address"
        },
        {
          "indexed": true,
          "internalType": "address",
          "name": "to",
          "type": "address"
        },
        {
          "indexed": false,
          "internalType": "uint256",
          "name": "value",
          "type": "uint256"
        }
      ],
      "name": "Transfer",
      "type": "event"
    },
    {
      "anonymous": false,
      "inputs": [
        {
          "indexed": true,
          "internalType": "address",
          "name": "_by",
          "type": "address"
        },
        {
          "indexed": true,
          "internalType": "address",
          "name": "_from",
          "type": "address"
        },
        {
          "indexed": true,
          "internalType": "address",
          "name": "_to",
          "type": "address"
        },
        {
          "indexed": false,
          "internalType": "uint256",
          "name": "_value",
          "type": "uint256"
        }
      ],
      "name": "Transferred",
      "type": "event"
    },
    {
      "anonymous": false,
      "inputs": [
        {
          "indexed": false,
          "internalType": "address",
          "name": "account",
          "type": "address"
        }
      ],
      "name": "Unpaused",
      "type": "event"
    },
    {
      "anonymous": false,
      "inputs": [
        {
          "indexed": true,
          "internalType": "address",
          "name": "_of",
          "type": "address"
        },
        {
          "indexed": false,
          "internalType": "uint256",
          "name": "_fromVal",
          "type": "uint256"
        },
        {
          "indexed": false,
          "internalType": "uint256",
          "name": "_toVal",
          "type": "uint256"
        }
      ],
      "name": "VotingPowerChanged",
      "type": "event"
    },
    {
      "inputs": [],
      "name": "DELEGATION_TYPEHASH",
      "outputs": [
        {
          "internalType": "bytes32",
          "name": "",
          "type": "bytes32"
        }
      ],
      "stateMutability": "view",
      "type": "function"
    },
    {
      "inputs": [],
      "name": "DOMAIN_TYPEHASH",
      "outputs": [
        {
          "internalType": "bytes32",
          "name": "",
          "type": "bytes32"
        }
      ],
      "stateMutability": "view",
      "type": "function"
    },
    {
      "inputs": [],
      "name": "admin",
      "outputs": [
        {
          "internalType": "address",
          "name": "",
          "type": "address"
        }
      ],
      "stateMutability": "view",
      "type": "function"
    },
    {
      "inputs": [
        {
          "internalType": "address",
          "name": "_owner",
          "type": "address"
        },
        {
          "internalType": "address",
          "name": "spender",
          "type": "address"
        }
      ],
      "name": "allowance",
      "outputs": [
        {
          "internalType": "uint256",
          "name": "",
          "type": "uint256"
        }
      ],
      "stateMutability": "view",
      "type": "function"
    },
    {
      "inputs": [
        {
          "internalType": "address",
          "name": "spender",
          "type": "address"
        },
        {
          "internalType": "uint256",
          "name": "amount",
          "type": "uint256"
        }
      ],
      "name": "approve",
      "outputs": [
        {
          "internalType": "bool",
          "name": "",
          "type": "bool"
        }
      ],
      "stateMutability": "nonpayable",
      "type": "function"
    },
    {
      "inputs": [
        {
          "internalType": "address",
          "name": "account",
          "type": "address"
        }
      ],
      "name": "balanceOf",
      "outputs": [
        {
          "internalType": "uint256",
          "name": "",
          "type": "uint256"
        }
      ],
      "stateMutability": "view",
      "type": "function"
    },
    {
      "inputs": [
        {
          "internalType": "address",
          "name": "_from",
          "type": "address"
        },
        {
          "internalType": "uint256",
          "name": "_amount",
          "type": "uint256"
        }
      ],
      "name": "burn",
      "outputs": [
        {
          "internalType": "bool",
          "name": "",
          "type": "bool"
        }
      ],
      "stateMutability": "nonpayable",
      "type": "function"
    },
    {
      "inputs": [],
      "name": "burner",
      "outputs": [
        {
          "internalType": "address",
          "name": "",
          "type": "address"
        }
      ],
      "stateMutability": "view",
      "type": "function"
    },
    {
      "inputs": [],
      "name": "decimals",
      "outputs": [
        {
          "internalType": "uint8",
          "name": "",
          "type": "uint8"
        }
      ],
      "stateMutability": "view",
      "type": "function"
    },
    {
      "inputs": [
        {
          "internalType": "address",
          "name": "spender",
          "type": "address"
        },
        {
          "internalType": "uint256",
          "name": "subtractedValue",
          "type": "uint256"
        }
      ],
      "name": "decreaseAllowance",
      "outputs": [
        {
          "internalType": "bool",
          "name": "",
          "type": "bool"
        }
      ],
      "stateMutability": "nonpayable",
      "type": "function"
    },
    {
      "inputs": [
        {
          "internalType": "address",
          "name": "_to",
          "type": "address"
        }
      ],
      "name": "delegate",
      "outputs": [],
      "stateMutability": "nonpayable",
      "type": "function"
    },
    {
      "inputs": [
        {
          "internalType": "address",
          "name": "_to",
          "type": "address"
        },
        {
          "internalType": "uint256",
          "name": "_nonce",
          "type": "uint256"
        },
        {
          "internalType": "uint256",
          "name": "_exp",
          "type": "uint256"
        },
        {
          "internalType": "uint8",
          "name": "v",
          "type": "uint8"
        },
        {
          "internalType": "bytes32",
          "name": "r",
          "type": "bytes32"
        },
        {
          "internalType": "bytes32",
          "name": "s",
          "type": "bytes32"
        }
      ],
      "name": "delegateWithSig",
      "outputs": [],
      "stateMutability": "nonpayable",
      "type": "function"
    },
    {
      "inputs": [
        {
          "internalType": "address",
          "name": "_of",
          "type": "address"
        }
      ],
      "name": "getVotingPower",
      "outputs": [
        {
          "internalType": "uint256",
          "name": "",
          "type": "uint256"
        }
      ],
      "stateMutability": "view",
      "type": "function"
    },
    {
      "inputs": [
        {
          "internalType": "address",
          "name": "_of",
          "type": "address"
        },
        {
          "internalType": "uint256",
          "name": "_blockNum",
          "type": "uint256"
        }
      ],
      "name": "getVotingPowerAt",
      "outputs": [
        {
          "internalType": "uint256",
          "name": "",
          "type": "uint256"
        }
      ],
      "stateMutability": "view",
      "type": "function"
    },
    {
      "inputs": [
        {
          "internalType": "address",
          "name": "_of",
          "type": "address"
        }
      ],
      "name": "getVotingPowerHistory",
      "outputs": [
        {
          "components": [
            {
              "internalType": "uint64",
              "name": "blockNumber",
              "type": "uint64"
            },
            {
              "internalType": "uint192",
              "name": "votingPower",
              "type": "uint192"
            }
          ],
          "internalType": "struct NBCoin.VotingPowerRecord[]",
          "name": "",
          "type": "tuple[]"
        }
      ],
      "stateMutability": "view",
      "type": "function"
    },
    {
      "inputs": [
        {
          "internalType": "address",
          "name": "_of",
          "type": "address"
        }
      ],
      "name": "getVotingPowerHistoryLength",
      "outputs": [
        {
          "internalType": "uint256",
          "name": "",
          "type": "uint256"
        }
      ],
      "stateMutability": "view",
      "type": "function"
    },
    {
      "inputs": [
        {
          "internalType": "address",
          "name": "spender",
          "type": "address"
        },
        {
          "internalType": "uint256",
          "name": "addedValue",
          "type": "uint256"
        }
      ],
      "name": "increaseAllowance",
      "outputs": [
        {
          "internalType": "bool",
          "name": "",
          "type": "bool"
        }
      ],
      "stateMutability": "nonpayable",
      "type": "function"
    },
    {
      "inputs": [
        {
          "internalType": "address",
          "name": "_to",
          "type": "address"
        },
        {
          "internalType": "uint256",
          "name": "_amount",
          "type": "uint256"
        }
      ],
      "name": "mint",
      "outputs": [
        {
          "internalType": "bool",
          "name": "",
          "type": "bool"
        }
      ],
      "stateMutability": "nonpayable",
      "type": "function"
    },
    {
      "inputs": [],
      "name": "minter",
      "outputs": [
        {
          "internalType": "address",
          "name": "",
          "type": "address"
        }
      ],
      "stateMutability": "view",
      "type": "function"
    },
    {
      "inputs": [],
      "name": "name",
      "outputs": [
        {
          "internalType": "string",
          "name": "",
          "type": "string"
        }
      ],
      "stateMutability": "view",
      "type": "function"
    },
    {
      "inputs": [
        {
          "internalType": "address",
          "name": "_newAdmin",
          "type": "address"
        }
      ],
      "name": "newAdmin",
      "outputs": [],
      "stateMutability": "nonpayable",
      "type": "function"
    },
    {
      "inputs": [
        {
          "internalType": "address",
          "name": "_newBurner",
          "type": "address"
        }
      ],
      "name": "newBurner",
      "outputs": [],
      "stateMutability": "nonpayable",
      "type": "function"
    },
    {
      "inputs": [
        {
          "internalType": "address",
          "name": "_newMinter",
          "type": "address"
        }
      ],
      "name": "newMinter",
      "outputs": [],
      "stateMutability": "nonpayable",
      "type": "function"
    },
    {
      "inputs": [
        {
          "internalType": "address",
          "name": "",
          "type": "address"
        }
      ],
      "name": "nonces",
      "outputs": [
        {
          "internalType": "uint256",
          "name": "",
          "type": "uint256"
        }
      ],
      "stateMutability": "view",
      "type": "function"
    },
    {
      "inputs": [],
      "name": "pause",
      "outputs": [],
      "stateMutability": "nonpayable",
      "type": "function"
    },
    {
      "inputs": [],
      "name": "paused",
      "outputs": [
        {
          "internalType": "bool",
          "name": "",
          "type": "bool"
        }
      ],
      "stateMutability": "view",
      "type": "function"
    },
    {
      "inputs": [],
      "name": "symbol",
      "outputs": [
        {
          "internalType": "string",
          "name": "",
          "type": "string"
        }
      ],
      "stateMutability": "view",
      "type": "function"
    },
    {
      "inputs": [],
      "name": "totalSupply",
      "outputs": [
        {
          "internalType": "uint256",
          "name": "",
          "type": "uint256"
        }
      ],
      "stateMutability": "view",
      "type": "function"
    },
    {
      "inputs": [
        {
          "internalType": "address",
          "name": "recipient",
          "type": "address"
        },
        {
          "internalType": "uint256",
          "name": "amount",
          "type": "uint256"
        }
      ],
      "name": "transfer",
      "outputs": [
        {
          "internalType": "bool",
          "name": "",
          "type": "bool"
        }
      ],
      "stateMutability": "nonpayable",
      "type": "function"
    },
    {
      "inputs": [
        {
          "internalType": "address",
          "name": "sender",
          "type": "address"
        },
        {
          "internalType": "address",
          "name": "recipient",
          "type": "address"
        },
        {
          "internalType": "uint256",
          "name": "amount",
          "type": "uint256"
        }
      ],
      "name": "transferFrom",
      "outputs": [
        {
          "internalType": "bool",
          "name": "",
          "type": "bool"
        }
      ],
      "stateMutability": "nonpayable",
      "type": "function"
    },
    {
      "inputs": [],
      "name": "unpause",
      "outputs": [],
      "stateMutability": "nonpayable",
      "type": "function"
    },
    {
      "inputs": [
        {
          "internalType": "address",
          "name": "",
          "type": "address"
        }
      ],
      "name": "votingDelegates",
      "outputs": [
        {
          "internalType": "address",
          "name": "",
          "type": "address"
        }
      ],
      "stateMutability": "view",
      "type": "function"
    },
    {
      "inputs": [
        {
          "internalType": "address",
          "name": "",
          "type": "address"
        },
        {
          "internalType": "uint256",
          "name": "",
          "type": "uint256"
        }
      ],
      "name": "votingPowerHistory",
      "outputs": [
        {
          "internalType": "uint64",
          "name": "blockNumber",
          "type": "uint64"
        },
        {
          "internalType": "uint192",
          "name": "votingPower",
          "type": "uint192"
        }
      ],
      "stateMutability": "view",
      "type": "function"
    }
  ],
  "bytecode": "0x60806040526a52b7d2dcc80cd2e40000006009556a6b88921f0410abc2000000600a553480156200002f57600080fd5b506040518060400160405280600681526020017f4e42436f696e00000000000000000000000000000000000000000000000000008152506040518060400160405280600381526020017f4e42430000000000000000000000000000000000000000000000000000000000815250620000ac620001d060201b60201c565b6000806101000a81548173ffffffffffffffffffffffffffffffffffffffff021916908373ffffffffffffffffffffffffffffffffffffffff160217905550620000fb620001d060201b60201c565b600160006101000a81548173ffffffffffffffffffffffffffffffffffffffff021916908373ffffffffffffffffffffffffffffffffffffffff1602179055506000600260146101000a81548160ff02191690831515021790555081600690805190602001906200016e92919062000b11565b5080600790805190602001906200018792919062000b11565b506012600860006101000a81548160ff021916908360ff1602179055505050620001c9620001ba620001d060201b60201c565b600954620001d860201b60201c565b5062000eb9565b600033905090565b6000600160009054906101000a900473ffffffffffffffffffffffffffffffffffffffff1673ffffffffffffffffffffffffffffffffffffffff1662000223620001d060201b60201c565b73ffffffffffffffffffffffffffffffffffffffff16146200024457600080fd5b620002546200038a60201b60201c565b1562000297576040517f08c379a00000000000000000000000000000000000000000000000000000000081526004016200028e9062000c69565b60405180910390fd5b600a5482620002ab620003a160201b60201c565b620002b7919062000d08565b1115620002fb576040517f08c379a0000000000000000000000000000000000000000000000000000000008152600401620002f29062000c8b565b60405180910390fd5b6200030d8383620003ab60201b60201c565b620003806000600b60008673ffffffffffffffffffffffffffffffffffffffff1673ffffffffffffffffffffffffffffffffffffffff16815260200190815260200160002060009054906101000a900473ffffffffffffffffffffffffffffffffffffffff16846200062960201b60201c565b6001905092915050565b6000600260149054906101000a900460ff16905090565b6000600554905090565b600073ffffffffffffffffffffffffffffffffffffffff168273ffffffffffffffffffffffffffffffffffffffff1614156200041e576040517f08c379a0000000000000000000000000000000000000000000000000000000008152600401620004159062000c47565b60405180910390fd5b62000432600083836200075a60201b60201c565b806005600082825462000446919062000d08565b9250508190555080600360008473ffffffffffffffffffffffffffffffffffffffff1673ffffffffffffffffffffffffffffffffffffffff16815260200190815260200160002060008282546200049e919062000d08565b925050819055508173ffffffffffffffffffffffffffffffffffffffff16620004cc620001d060201b60201c565b73ffffffffffffffffffffffffffffffffffffffff167f9d228d69b5fdb8d273a2336f8fb8612d039631024ea9bf09c424a9503aa078f08360405162000513919062000cad565b60405180910390a38173ffffffffffffffffffffffffffffffffffffffff16600073ffffffffffffffffffffffffffffffffffffffff166200055a620001d060201b60201c565b73ffffffffffffffffffffffffffffffffffffffff167f769254a71d2f67d8ac6cb44f2803c0d05cfbcf9effadb6a984f10ff9de3df6c384604051620005a1919062000cad565b60405180910390a48173ffffffffffffffffffffffffffffffffffffffff16600073ffffffffffffffffffffffffffffffffffffffff167fddf252ad1be2c89b69c2b068fc378daa952ba7f163c4a11628f55a4df523b3ef8360405162000609919062000cad565b60405180910390a362000625600083836200075f60201b60201c565b5050565b8173ffffffffffffffffffffffffffffffffffffffff168373ffffffffffffffffffffffffffffffffffffffff161480620006645750600081145b15620006705762000755565b600073ffffffffffffffffffffffffffffffffffffffff168373ffffffffffffffffffffffffffffffffffffffff1614620006e2576000620006b8846200076460201b60201c565b905060008282620006ca919062000d65565b9050620006df8583836200085e60201b60201c565b50505b600073ffffffffffffffffffffffffffffffffffffffff168273ffffffffffffffffffffffffffffffffffffffff1614620007545760006200072a836200076460201b60201c565b9050600082826200073c919062000d08565b9050620007518483836200085e60201b60201c565b50505b5b505050565b505050565b505050565b600080600c60008473ffffffffffffffffffffffffffffffffffffffff1673ffffffffffffffffffffffffffffffffffffffff1681526020019081526020016000209050600081805490501462000839578060018280549050620007c9919062000d65565b8154811062000801577f4e487b7100000000000000000000000000000000000000000000000000000000600052603260045260246000fd5b9060005260206000200160000160089054906101000a900477ffffffffffffffffffffffffffffffffffffffffffffffff166200083c565b60005b77ffffffffffffffffffffffffffffffffffffffffffffffff16915050919050565b6000600c60008573ffffffffffffffffffffffffffffffffffffffff1673ffffffffffffffffffffffffffffffffffffffff168152602001908152602001600020905060008180549050141580156200092d5750438160018380549050620008c7919062000d65565b81548110620008ff577f4e487b7100000000000000000000000000000000000000000000000000000000600052603260045260246000fd5b9060005260206000200160000160009054906101000a900467ffffffffffffffff1667ffffffffffffffff16145b15620009d95781816001838054905062000948919062000d65565b8154811062000980577f4e487b7100000000000000000000000000000000000000000000000000000000600052603260045260246000fd5b9060005260206000200160000160086101000a81548177ffffffffffffffffffffffffffffffffffffffffffffffff021916908377ffffffffffffffffffffffffffffffffffffffffffffffff16021790555062000ab9565b8060405180604001604052804367ffffffffffffffff1681526020018477ffffffffffffffffffffffffffffffffffffffffffffffff168152509080600181540180825580915050600190039060005260206000200160009091909190915060008201518160000160006101000a81548167ffffffffffffffff021916908367ffffffffffffffff16021790555060208201518160000160086101000a81548177ffffffffffffffffffffffffffffffffffffffffffffffff021916908377ffffffffffffffffffffffffffffffffffffffffffffffff16021790555050505b8373ffffffffffffffffffffffffffffffffffffffff167f53ed7954de66613e30dd29b46ab783aa594e6309d021d8854c76bb3325d03aa3848460405162000b0392919062000cca565b60405180910390a250505050565b82805462000b1f9062000daa565b90600052602060002090601f01602090048101928262000b43576000855562000b8f565b82601f1062000b5e57805160ff191683800117855562000b8f565b8280016001018555821562000b8f579182015b8281111562000b8e57825182559160200191906001019062000b71565b5b50905062000b9e919062000ba2565b5090565b5b8082111562000bbd57600081600090555060010162000ba3565b5090565b600062000bd0601f8362000cf7565b915062000bdd8262000e3e565b602082019050919050565b600062000bf760108362000cf7565b915062000c048262000e67565b602082019050919050565b600062000c1e601f8362000cf7565b915062000c2b8262000e90565b602082019050919050565b62000c418162000da0565b82525050565b6000602082019050818103600083015262000c628162000bc1565b9050919050565b6000602082019050818103600083015262000c848162000be8565b9050919050565b6000602082019050818103600083015262000ca68162000c0f565b9050919050565b600060208201905062000cc4600083018462000c36565b92915050565b600060408201905062000ce1600083018562000c36565b62000cf0602083018462000c36565b9392505050565b600082825260208201905092915050565b600062000d158262000da0565b915062000d228362000da0565b9250827fffffffffffffffffffffffffffffffffffffffffffffffffffffffffffffffff0382111562000d5a5762000d5962000de0565b5b828201905092915050565b600062000d728262000da0565b915062000d7f8362000da0565b92508282101562000d955762000d9462000de0565b5b828203905092915050565b6000819050919050565b6000600282049050600182168062000dc357607f821691505b6020821081141562000dda5762000dd962000e0f565b5b50919050565b7f4e487b7100000000000000000000000000000000000000000000000000000000600052601160045260246000fd5b7f4e487b7100000000000000000000000000000000000000000000000000000000600052602260045260246000fd5b7f42455032303a204d696e7420746f20746865207a65726f206164647265737300600082015250565b7f5061757361626c653a2070617573656400000000000000000000000000000000600082015250565b7f42455032303a2043617020726561636865642e2043616e6e6f74206d696e7400600082015250565b613fe88062000ec96000396000f3fe608060405234801561001057600080fd5b50600436106101fb5760003560e01c806370a082311161011a578063a6ba31c1116100ad578063dd62ed3e1161007c578063dd62ed3e14610615578063e7a324dc14610645578063eaeded5f14610663578063f840f72b14610693578063f851a440146106af576101fb565b8063a6ba31c114610569578063a9059cbb14610585578063bb4d4436146105b5578063ce9517cf146105e5576101fb565b806384b34a31116100e957806384b34a31146104bb57806395d89b41146104eb5780639dc29fac14610509578063a457c2d714610539576101fb565b806370a08231146104205780637ecebe00146104505780637fd491b0146104805780638456cb59146104b1576101fb565b806327810b6e1161019257806340c10f191161016157806340c10f191461039a57806357341912146103ca5780635c19a95c146103e65780635c975abb14610402576101fb565b806327810b6e14610324578063313ce5671461034257806339509351146103605780633f4ba83a14610390576101fb565b806318160ddd116101ce57806318160ddd146102885780631e0fa234146102a657806320606b70146102d657806323b872dd146102f4576101fb565b806306fdde0314610200578063075461721461021e578063095ea7b31461023c57806315d2c2251461026c575b600080fd5b6102086106cd565b604051610215919061354c565b60405180910390f35b61022661075f565b604051610233919061340a565b60405180910390f35b61025660048036038101906102519190612f1c565b610785565b6040516102639190613447565b60405180910390f35b61028660048036038101906102819190612f58565b6107eb565b005b610290610ab9565b60405161029d919061378e565b60405180910390f35b6102c060048036038101906102bb9190612e68565b610ac3565b6040516102cd919061340a565b60405180910390f35b6102de610af6565b6040516102eb9190613462565b60405180910390f35b61030e60048036038101906103099190612ecd565b610b1a565b60405161031b9190613447565b60405180910390f35b61032c610c5a565b604051610339919061340a565b60405180910390f35b61034a610c80565b60405161035791906137fb565b60405180910390f35b61037a60048036038101906103759190612f1c565b610c97565b6040516103879190613447565b60405180910390f35b610398610d8b565b005b6103b460048036038101906103af9190612f1c565b610e8c565b6040516103c19190613447565b60405180910390f35b6103e460048036038101906103df9190612e68565b61100d565b005b61040060048036038101906103fb9190612e68565b6110ea565b005b61040a6110f7565b6040516104179190613447565b60405180910390f35b61043a60048036038101906104359190612e68565b61110e565b604051610447919061378e565b60405180910390f35b61046a60048036038101906104659190612e68565b611157565b604051610477919061378e565b60405180910390f35b61049a60048036038101906104959190612f1c565b61116f565b6040516104a89291906137d2565b60405180910390f35b6104b96111e4565b005b6104d560048036038101906104d09190612e68565b6112e6565b6040516104e2919061378e565b60405180910390f35b6104f3611332565b604051610500919061354c565b60405180910390f35b610523600480360381019061051e9190612f1c565b6113c4565b6040516105309190613447565b60405180910390f35b610553600480360381019061054e9190612f1c565b6114ee565b6040516105609190613447565b60405180910390f35b610583600480360381019061057e9190612e68565b611622565b005b61059f600480360381019061059a9190612f1c565b6116fe565b6040516105ac9190613447565b60405180910390f35b6105cf60048036038101906105ca9190612e68565b611764565b6040516105dc919061378e565b60405180910390f35b6105ff60048036038101906105fa9190612e68565b611859565b60405161060c9190613425565b60405180910390f35b61062f600480360381019061062a9190612e91565b611987565b60405161063c919061378e565b60405180910390f35b61064d611a0e565b60405161065a9190613462565b60405180910390f35b61067d60048036038101906106789190612f1c565b611a32565b60405161068a919061378e565b60405180910390f35b6106ad60048036038101906106a89190612e68565b611c6b565b005b6106b7611d48565b6040516106c4919061340a565b60405180910390f35b6060600680546106dc906139fb565b80601f0160208091040260200160405190810160405280929190818152602001828054610708906139fb565b80156107555780601f1061072a57610100808354040283529160200191610755565b820191906000526020600020905b81548152906001019060200180831161073857829003601f168201915b5050505050905090565b600160009054906101000a900473ffffffffffffffffffffffffffffffffffffffff1681565b600061078f6110f7565b156107cf576040517f08c379a00000000000000000000000000000000000000000000000000000000081526004016107c69061360e565b60405180910390fd5b6107e16107da611d6c565b8484611d74565b6001905092915050565b60007f8cad95687ba82c2ce50e74f7b754645e5117c3a5bec8151c0726d5857980a8666108166106cd565b80519060200120463060405160200161083294939291906134c2565b60405160208183030381529060405280519060200120905060007fff41620983935eb4d4a3c7384a066ca8c1d10cef9a5eca9eb97ca735cd14a755888888604051602001610883949392919061347d565b604051602081830303815290604052805190602001209050600082826040516020016108b09291906133d3565b6040516020818303038152906040528051906020012090506000600182888888604051600081526020016040526040516108ed9493929190613507565b6020604051602081039080840390855afa15801561090f573d6000803e3d6000fd5b505050602060405103519050600073ffffffffffffffffffffffffffffffffffffffff168173ffffffffffffffffffffffffffffffffffffffff16141561098b576040517f08c379a00000000000000000000000000000000000000000000000000000000081526004016109829061358e565b60405180910390fd5b600d60008273ffffffffffffffffffffffffffffffffffffffff1673ffffffffffffffffffffffffffffffffffffffff168152602001908152602001600020548914610a0c576040517f08c379a0000000000000000000000000000000000000000000000000000000008152600401610a039061362e565b60405180910390fd5b874210610a4e576040517f08c379a0000000000000000000000000000000000000000000000000000000008152600401610a459061376e565b60405180910390fd5b600d60008273ffffffffffffffffffffffffffffffffffffffff1673ffffffffffffffffffffffffffffffffffffffff1681526020019081526020016000206000815480929190610a9e90613a2d565b9190505550610aad818b611f3f565b50505050505050505050565b6000600554905090565b600b6020528060005260406000206000915054906101000a900473ffffffffffffffffffffffffffffffffffffffff1681565b7f8cad95687ba82c2ce50e74f7b754645e5117c3a5bec8151c0726d5857980a86681565b6000610b246110f7565b15610b64576040517f08c379a0000000000000000000000000000000000000000000000000000000008152600401610b5b9061360e565b60405180910390fd5b610b6f8484846120e7565b6000600460008673ffffffffffffffffffffffffffffffffffffffff1673ffffffffffffffffffffffffffffffffffffffff1681526020019081526020016000206000610bba611d6c565b73ffffffffffffffffffffffffffffffffffffffff1673ffffffffffffffffffffffffffffffffffffffff16815260200190815260200160002054905082811015610c3a576040517f08c379a0000000000000000000000000000000000000000000000000000000008152600401610c319061368e565b60405180910390fd5b610c4e85610c46611d6c565b858403611d74565b60019150509392505050565b600260009054906101000a900473ffffffffffffffffffffffffffffffffffffffff1681565b6000600860009054906101000a900460ff16905090565b6000610ca16110f7565b15610ce1576040517f08c379a0000000000000000000000000000000000000000000000000000000008152600401610cd89061360e565b60405180910390fd5b610d81610cec611d6c565b848460046000610cfa611d6c565b73ffffffffffffffffffffffffffffffffffffffff1673ffffffffffffffffffffffffffffffffffffffff16815260200190815260200160002060008873ffffffffffffffffffffffffffffffffffffffff1673ffffffffffffffffffffffffffffffffffffffff16815260200190815260200160002054610d7c9190613876565b611d74565b6001905092915050565b610d936110f7565b610dd2576040517f08c379a0000000000000000000000000000000000000000000000000000000008152600401610dc99061356e565b60405180910390fd5b60008054906101000a900473ffffffffffffffffffffffffffffffffffffffff1673ffffffffffffffffffffffffffffffffffffffff16610e11611d6c565b73ffffffffffffffffffffffffffffffffffffffff1614610e3157600080fd5b6000600260146101000a81548160ff0219169083151502179055507f5db9ee0a495bf2e6ff9c91a7834c1ba4fdd244a5e8aa4e537bd38aeae4b073aa610e75611d6c565b604051610e82919061340a565b60405180910390a1565b6000600160009054906101000a900473ffffffffffffffffffffffffffffffffffffffff1673ffffffffffffffffffffffffffffffffffffffff16610ecf611d6c565b73ffffffffffffffffffffffffffffffffffffffff1614610eef57600080fd5b610ef76110f7565b15610f37576040517f08c379a0000000000000000000000000000000000000000000000000000000008152600401610f2e9061360e565b60405180910390fd5b600a5482610f43610ab9565b610f4d9190613876565b1115610f8e576040517f08c379a0000000000000000000000000000000000000000000000000000000008152600401610f85906136ee565b60405180910390fd5b610f98838361236b565b6110036000600b60008673ffffffffffffffffffffffffffffffffffffffff1673ffffffffffffffffffffffffffffffffffffffff16815260200190815260200160002060009054906101000a900473ffffffffffffffffffffffffffffffffffffffff16846125bc565b6001905092915050565b60008054906101000a900473ffffffffffffffffffffffffffffffffffffffff1673ffffffffffffffffffffffffffffffffffffffff1661104c611d6c565b73ffffffffffffffffffffffffffffffffffffffff161461106c57600080fd5b600073ffffffffffffffffffffffffffffffffffffffff168173ffffffffffffffffffffffffffffffffffffffff1614156110a657600080fd5b80600160006101000a81548173ffffffffffffffffffffffffffffffffffffffff021916908373ffffffffffffffffffffffffffffffffffffffff16021790555050565b6110f43382611f3f565b50565b6000600260149054906101000a900460ff16905090565b6000600360008373ffffffffffffffffffffffffffffffffffffffff1673ffffffffffffffffffffffffffffffffffffffff168152602001908152602001600020549050919050565b600d6020528060005260406000206000915090505481565b600c602052816000526040600020818154811061118b57600080fd5b90600052602060002001600091509150508060000160009054906101000a900467ffffffffffffffff16908060000160089054906101000a900477ffffffffffffffffffffffffffffffffffffffffffffffff16905082565b6111ec6110f7565b1561122c576040517f08c379a00000000000000000000000000000000000000000000000000000000081526004016112239061360e565b60405180910390fd5b60008054906101000a900473ffffffffffffffffffffffffffffffffffffffff1673ffffffffffffffffffffffffffffffffffffffff1661126b611d6c565b73ffffffffffffffffffffffffffffffffffffffff161461128b57600080fd5b6001600260146101000a81548160ff0219169083151502179055507f62e78cea01bee320cd4e420270b5ea74000d11b0c9f74754ebdbfc544b05a2586112cf611d6c565b6040516112dc919061340a565b60405180910390a1565b6000600c60008373ffffffffffffffffffffffffffffffffffffffff1673ffffffffffffffffffffffffffffffffffffffff168152602001908152602001600020805490509050919050565b606060078054611341906139fb565b80601f016020809104026020016040519081016040528092919081815260200182805461136d906139fb565b80156113ba5780601f1061138f576101008083540402835291602001916113ba565b820191906000526020600020905b81548152906001019060200180831161139d57829003601f168201915b5050505050905090565b6000600260009054906101000a900473ffffffffffffffffffffffffffffffffffffffff1673ffffffffffffffffffffffffffffffffffffffff16611407611d6c565b73ffffffffffffffffffffffffffffffffffffffff161461142757600080fd5b61142f6110f7565b1561146f576040517f08c379a00000000000000000000000000000000000000000000000000000000081526004016114669061360e565b60405180910390fd5b61147983836126c4565b6114e4600b60008573ffffffffffffffffffffffffffffffffffffffff1673ffffffffffffffffffffffffffffffffffffffff16815260200190815260200160002060009054906101000a900473ffffffffffffffffffffffffffffffffffffffff166000846125bc565b6001905092915050565b60006114f86110f7565b15611538576040517f08c379a000000000000000000000000000000000000000000000000000000000815260040161152f9061360e565b60405180910390fd5b600060046000611546611d6c565b73ffffffffffffffffffffffffffffffffffffffff1673ffffffffffffffffffffffffffffffffffffffff16815260200190815260200160002060008573ffffffffffffffffffffffffffffffffffffffff1673ffffffffffffffffffffffffffffffffffffffff16815260200190815260200160002054905082811015611603576040517f08c379a00000000000000000000000000000000000000000000000000000000081526004016115fa906136ce565b60405180910390fd5b61161761160e611d6c565b85858403611d74565b600191505092915050565b60008054906101000a900473ffffffffffffffffffffffffffffffffffffffff1673ffffffffffffffffffffffffffffffffffffffff16611661611d6c565b73ffffffffffffffffffffffffffffffffffffffff161461168157600080fd5b600073ffffffffffffffffffffffffffffffffffffffff168173ffffffffffffffffffffffffffffffffffffffff1614156116bb57600080fd5b806000806101000a81548173ffffffffffffffffffffffffffffffffffffffff021916908373ffffffffffffffffffffffffffffffffffffffff16021790555050565b60006117086110f7565b15611748576040517f08c379a000000000000000000000000000000000000000000000000000000000815260040161173f9061360e565b60405180910390fd5b61175a611753611d6c565b84846120e7565b6001905092915050565b600080600c60008473ffffffffffffffffffffffffffffffffffffffff1673ffffffffffffffffffffffffffffffffffffffff168152602001908152602001600020905060008180549050146118345780600182805490506117c691906138fd565b815481106117fd577f4e487b7100000000000000000000000000000000000000000000000000000000600052603260045260246000fd5b9060005260206000200160000160089054906101000a900477ffffffffffffffffffffffffffffffffffffffffffffffff16611837565b60005b77ffffffffffffffffffffffffffffffffffffffffffffffff16915050919050565b6060600c60008373ffffffffffffffffffffffffffffffffffffffff1673ffffffffffffffffffffffffffffffffffffffff168152602001908152602001600020805480602002602001604051908101604052809291908181526020016000905b8282101561197c578382906000526020600020016040518060400160405290816000820160009054906101000a900467ffffffffffffffff1667ffffffffffffffff1667ffffffffffffffff1681526020016000820160089054906101000a900477ffffffffffffffffffffffffffffffffffffffffffffffff1677ffffffffffffffffffffffffffffffffffffffffffffffff1677ffffffffffffffffffffffffffffffffffffffffffffffff1681525050815260200190600101906118ba565b505050509050919050565b6000600460008473ffffffffffffffffffffffffffffffffffffffff1673ffffffffffffffffffffffffffffffffffffffff16815260200190815260200160002060008373ffffffffffffffffffffffffffffffffffffffff1673ffffffffffffffffffffffffffffffffffffffff16815260200190815260200160002054905092915050565b7fff41620983935eb4d4a3c7384a066ca8c1d10cef9a5eca9eb97ca735cd14a75581565b6000438210611a76576040517f08c379a0000000000000000000000000000000000000000000000000000000008152600401611a6d906135ae565b60405180910390fd5b6000600c60008573ffffffffffffffffffffffffffffffffffffffff1673ffffffffffffffffffffffffffffffffffffffff1681526020019081526020016000209050600081805490501415611ad0576000915050611c65565b828160018380549050611ae391906138fd565b81548110611b1a577f4e487b7100000000000000000000000000000000000000000000000000000000600052603260045260246000fd5b9060005260206000200160000160009054906101000a900467ffffffffffffffff1667ffffffffffffffff1611611b5c57611b5484611764565b915050611c65565b8281600081548110611b97577f4e487b7100000000000000000000000000000000000000000000000000000000600052603260045260246000fd5b9060005260206000200160000160009054906101000a900467ffffffffffffffff1667ffffffffffffffff161115611bd3576000915050611c65565b80611bde858561298d565b81548110611c15577f4e487b7100000000000000000000000000000000000000000000000000000000600052603260045260246000fd5b9060005260206000200160000160089054906101000a900477ffffffffffffffffffffffffffffffffffffffffffffffff1677ffffffffffffffffffffffffffffffffffffffffffffffff169150505b92915050565b60008054906101000a900473ffffffffffffffffffffffffffffffffffffffff1673ffffffffffffffffffffffffffffffffffffffff16611caa611d6c565b73ffffffffffffffffffffffffffffffffffffffff1614611cca57600080fd5b600073ffffffffffffffffffffffffffffffffffffffff168173ffffffffffffffffffffffffffffffffffffffff161415611d0457600080fd5b80600260006101000a81548173ffffffffffffffffffffffffffffffffffffffff021916908373ffffffffffffffffffffffffffffffffffffffff16021790555050565b60008054906101000a900473ffffffffffffffffffffffffffffffffffffffff1681565b600033905090565b600073ffffffffffffffffffffffffffffffffffffffff168373ffffffffffffffffffffffffffffffffffffffff161415611de4576040517f08c379a0000000000000000000000000000000000000000000000000000000008152600401611ddb906135ce565b60405180910390fd5b600073ffffffffffffffffffffffffffffffffffffffff168273ffffffffffffffffffffffffffffffffffffffff161415611e54576040517f08c379a0000000000000000000000000000000000000000000000000000000008152600401611e4b9061364e565b60405180910390fd5b80600460008573ffffffffffffffffffffffffffffffffffffffff1673ffffffffffffffffffffffffffffffffffffffff16815260200190815260200160002060008473ffffffffffffffffffffffffffffffffffffffff1673ffffffffffffffffffffffffffffffffffffffff168152602001908152602001600020819055508173ffffffffffffffffffffffffffffffffffffffff168373ffffffffffffffffffffffffffffffffffffffff167f8c5be1e5ebec7d5bd14f71427d1e84f3dd0314c0f7b2291e5b200ac8c7c3b92583604051611f32919061378e565b60405180910390a3505050565b6000600b60008473ffffffffffffffffffffffffffffffffffffffff1673ffffffffffffffffffffffffffffffffffffffff16815260200190815260200160002060009054906101000a900473ffffffffffffffffffffffffffffffffffffffff1690506000600360008573ffffffffffffffffffffffffffffffffffffffff1673ffffffffffffffffffffffffffffffffffffffff16815260200190815260200160002054905082600b60008673ffffffffffffffffffffffffffffffffffffffff1673ffffffffffffffffffffffffffffffffffffffff16815260200190815260200160002060006101000a81548173ffffffffffffffffffffffffffffffffffffffff021916908373ffffffffffffffffffffffffffffffffffffffff1602179055506120708284836125bc565b8273ffffffffffffffffffffffffffffffffffffffff168273ffffffffffffffffffffffffffffffffffffffff168573ffffffffffffffffffffffffffffffffffffffff167f3134e8a2e6d97e929a7e54011ea5485d7d196dd5f0ba4d4ef95803e8e3fc257f60405160405180910390a450505050565b600073ffffffffffffffffffffffffffffffffffffffff168373ffffffffffffffffffffffffffffffffffffffff161415612157576040517f08c379a000000000000000000000000000000000000000000000000000000000815260040161214e906136ae565b60405180910390fd5b600073ffffffffffffffffffffffffffffffffffffffff168273ffffffffffffffffffffffffffffffffffffffff1614156121c7576040517f08c379a00000000000000000000000000000000000000000000000000000000081526004016121be9061374e565b60405180910390fd5b6121d2838383612b62565b6000600360008573ffffffffffffffffffffffffffffffffffffffff1673ffffffffffffffffffffffffffffffffffffffff16815260200190815260200160002054905081811015612259576040517f08c379a00000000000000000000000000000000000000000000000000000000081526004016122509061372e565b60405180910390fd5b818103600360008673ffffffffffffffffffffffffffffffffffffffff1673ffffffffffffffffffffffffffffffffffffffff1681526020019081526020016000208190555081600360008573ffffffffffffffffffffffffffffffffffffffff1673ffffffffffffffffffffffffffffffffffffffff16815260200190815260200160002060008282546122ee9190613876565b925050819055508273ffffffffffffffffffffffffffffffffffffffff168473ffffffffffffffffffffffffffffffffffffffff167fddf252ad1be2c89b69c2b068fc378daa952ba7f163c4a11628f55a4df523b3ef84604051612352919061378e565b60405180910390a3612365848484612b67565b50505050565b600073ffffffffffffffffffffffffffffffffffffffff168273ffffffffffffffffffffffffffffffffffffffff1614156123db576040517f08c379a00000000000000000000000000000000000000000000000000000000081526004016123d2906135ee565b60405180910390fd5b6123e760008383612b62565b80600560008282546123f99190613876565b9250508190555080600360008473ffffffffffffffffffffffffffffffffffffffff1673ffffffffffffffffffffffffffffffffffffffff168152602001908152602001600020600082825461244f9190613876565b925050819055508173ffffffffffffffffffffffffffffffffffffffff16612475611d6c565b73ffffffffffffffffffffffffffffffffffffffff167f9d228d69b5fdb8d273a2336f8fb8612d039631024ea9bf09c424a9503aa078f0836040516124ba919061378e565b60405180910390a38173ffffffffffffffffffffffffffffffffffffffff16600073ffffffffffffffffffffffffffffffffffffffff166124f9611d6c565b73ffffffffffffffffffffffffffffffffffffffff167f769254a71d2f67d8ac6cb44f2803c0d05cfbcf9effadb6a984f10ff9de3df6c38460405161253e919061378e565b60405180910390a48173ffffffffffffffffffffffffffffffffffffffff16600073ffffffffffffffffffffffffffffffffffffffff167fddf252ad1be2c89b69c2b068fc378daa952ba7f163c4a11628f55a4df523b3ef836040516125a4919061378e565b60405180910390a36125b860008383612b67565b5050565b8173ffffffffffffffffffffffffffffffffffffffff168373ffffffffffffffffffffffffffffffffffffffff1614806125f65750600081145b15612600576126bf565b600073ffffffffffffffffffffffffffffffffffffffff168373ffffffffffffffffffffffffffffffffffffffff161461265f57600061263f84611764565b90506000828261264f91906138fd565b905061265c858383612b6c565b50505b600073ffffffffffffffffffffffffffffffffffffffff168273ffffffffffffffffffffffffffffffffffffffff16146126be57600061269e83611764565b9050600082826126ae9190613876565b90506126bb848383612b6c565b50505b5b505050565b600073ffffffffffffffffffffffffffffffffffffffff168273ffffffffffffffffffffffffffffffffffffffff161415612734576040517f08c379a000000000000000000000000000000000000000000000000000000000815260040161272b9061366e565b60405180910390fd5b61274082600083612b62565b6000600360008473ffffffffffffffffffffffffffffffffffffffff1673ffffffffffffffffffffffffffffffffffffffff168152602001908152602001600020549050818110156127c7576040517f08c379a00000000000000000000000000000000000000000000000000000000081526004016127be9061370e565b60405180910390fd5b818103600360008573ffffffffffffffffffffffffffffffffffffffff1673ffffffffffffffffffffffffffffffffffffffff16815260200190815260200160002081905550816005600082825461281f91906138fd565b925050819055508273ffffffffffffffffffffffffffffffffffffffff16612845611d6c565b73ffffffffffffffffffffffffffffffffffffffff167fe8a89cc6e5096f9d9f43de82c077c1f4cfe707c0e0c2032176c68813b9ae6a5c8460405161288a919061378e565b60405180910390a3600073ffffffffffffffffffffffffffffffffffffffff168373ffffffffffffffffffffffffffffffffffffffff166128c9611d6c565b73ffffffffffffffffffffffffffffffffffffffff167f769254a71d2f67d8ac6cb44f2803c0d05cfbcf9effadb6a984f10ff9de3df6c38560405161290e919061378e565b60405180910390a4600073ffffffffffffffffffffffffffffffffffffffff168373ffffffffffffffffffffffffffffffffffffffff167fddf252ad1be2c89b69c2b068fc378daa952ba7f163c4a11628f55a4df523b3ef84604051612974919061378e565b60405180910390a361298883600084612b67565b505050565b600080600c60008573ffffffffffffffffffffffffffffffffffffffff1673ffffffffffffffffffffffffffffffffffffffff1681526020019081526020016000209050600080600183805490506129e591906138fd565b90505b81811115612b5557600060028383612a0091906138fd565b612a0a91906138cc565b82612a1591906138fd565b90506000848281548110612a52577f4e487b7100000000000000000000000000000000000000000000000000000000600052603260045260246000fd5b906000526020600020016040518060400160405290816000820160009054906101000a900467ffffffffffffffff1667ffffffffffffffff1667ffffffffffffffff1681526020016000820160089054906101000a900477ffffffffffffffffffffffffffffffffffffffffffffffff1677ffffffffffffffffffffffffffffffffffffffffffffffff1677ffffffffffffffffffffffffffffffffffffffffffffffff1681525050905086816000015167ffffffffffffffff161415612b20578195505050505050612b5c565b86816000015167ffffffffffffffff161015612b3e57819350612b4e565b600182612b4b91906138fd565b92505b50506129e8565b8193505050505b92915050565b505050565b505050565b6000600c60008573ffffffffffffffffffffffffffffffffffffffff1673ffffffffffffffffffffffffffffffffffffffff16815260200190815260200160002090506000818054905014158015612c375750438160018380549050612bd291906138fd565b81548110612c09577f4e487b7100000000000000000000000000000000000000000000000000000000600052603260045260246000fd5b9060005260206000200160000160009054906101000a900467ffffffffffffffff1667ffffffffffffffff16145b15612cde57818160018380549050612c4f91906138fd565b81548110612c86577f4e487b7100000000000000000000000000000000000000000000000000000000600052603260045260246000fd5b9060005260206000200160000160086101000a81548177ffffffffffffffffffffffffffffffffffffffffffffffff021916908377ffffffffffffffffffffffffffffffffffffffffffffffff160217905550612dbe565b8060405180604001604052804367ffffffffffffffff1681526020018477ffffffffffffffffffffffffffffffffffffffffffffffff168152509080600181540180825580915050600190039060005260206000200160009091909190915060008201518160000160006101000a81548167ffffffffffffffff021916908367ffffffffffffffff16021790555060208201518160000160086101000a81548177ffffffffffffffffffffffffffffffffffffffffffffffff021916908377ffffffffffffffffffffffffffffffffffffffffffffffff16021790555050505b8373ffffffffffffffffffffffffffffffffffffffff167f53ed7954de66613e30dd29b46ab783aa594e6309d021d8854c76bb3325d03aa38484604051612e069291906137a9565b60405180910390a250505050565b600081359050612e2381613f56565b92915050565b600081359050612e3881613f6d565b92915050565b600081359050612e4d81613f84565b92915050565b600081359050612e6281613f9b565b92915050565b600060208284031215612e7a57600080fd5b6000612e8884828501612e14565b91505092915050565b60008060408385031215612ea457600080fd5b6000612eb285828601612e14565b9250506020612ec385828601612e14565b9150509250929050565b600080600060608486031215612ee257600080fd5b6000612ef086828701612e14565b9350506020612f0186828701612e14565b9250506040612f1286828701612e3e565b9150509250925092565b60008060408385031215612f2f57600080fd5b6000612f3d85828601612e14565b9250506020612f4e85828601612e3e565b9150509250929050565b60008060008060008060c08789031215612f7157600080fd5b6000612f7f89828a01612e14565b9650506020612f9089828a01612e3e565b9550506040612fa189828a01612e3e565b9450506060612fb289828a01612e53565b9350506080612fc389828a01612e29565b92505060a0612fd489828a01612e29565b9150509295509295509295565b6000612fed838361334a565b60408301905092915050565b61300281613931565b82525050565b600061301382613826565b61301d8185613849565b935061302883613816565b8060005b838110156130595781516130408882612fe1565b975061304b8361383c565b92505060018101905061302c565b5085935050505092915050565b61306f81613943565b82525050565b61307e8161394f565b82525050565b6130956130908261394f565b613a76565b82525050565b60006130a682613831565b6130b0818561385a565b93506130c08185602086016139c8565b6130c981613b0d565b840191505092915050565b60006130e160148361385a565b91506130ec82613b1e565b602082019050919050565b600061310460118361385a565b915061310f82613b47565b602082019050919050565b600061312760028361386b565b915061313282613b70565b600282019050919050565b600061314a60128361385a565b915061315582613b99565b602082019050919050565b600061316d60248361385a565b915061317882613bc2565b604082019050919050565b6000613190601f8361385a565b915061319b82613c11565b602082019050919050565b60006131b360108361385a565b91506131be82613c3a565b602082019050919050565b60006131d6600d8361385a565b91506131e182613c63565b602082019050919050565b60006131f960228361385a565b915061320482613c8c565b604082019050919050565b600061321c60218361385a565b915061322782613cdb565b604082019050919050565b600061323f60288361385a565b915061324a82613d2a565b604082019050919050565b600061326260258361385a565b915061326d82613d79565b604082019050919050565b600061328560258361385a565b915061329082613dc8565b604082019050919050565b60006132a8601f8361385a565b91506132b382613e17565b602082019050919050565b60006132cb60228361385a565b91506132d682613e40565b604082019050919050565b60006132ee60268361385a565b91506132f982613e8f565b604082019050919050565b600061331160238361385a565b915061331c82613ede565b604082019050919050565b600061333460118361385a565b915061333f82613f2d565b602082019050919050565b60408201600082015161336060008501826133a6565b5060208201516133736020850182613379565b50505050565b61338281613979565b82525050565b61339181613979565b82525050565b6133a08161399d565b82525050565b6133af816139a7565b82525050565b6133be816139a7565b82525050565b6133cd816139bb565b82525050565b60006133de8261311a565b91506133ea8285613084565b6020820191506133fa8284613084565b6020820191508190509392505050565b600060208201905061341f6000830184612ff9565b92915050565b6000602082019050818103600083015261343f8184613008565b905092915050565b600060208201905061345c6000830184613066565b92915050565b60006020820190506134776000830184613075565b92915050565b60006080820190506134926000830187613075565b61349f6020830186612ff9565b6134ac6040830185613397565b6134b96060830184613397565b95945050505050565b60006080820190506134d76000830187613075565b6134e46020830186613075565b6134f16040830185613397565b6134fe6060830184612ff9565b95945050505050565b600060808201905061351c6000830187613075565b61352960208301866133c4565b6135366040830185613075565b6135436060830184613075565b95945050505050565b60006020820190508181036000830152613566818461309b565b905092915050565b60006020820190508181036000830152613587816130d4565b9050919050565b600060208201905081810360008301526135a7816130f7565b9050919050565b600060208201905081810360008301526135c78161313d565b9050919050565b600060208201905081810360008301526135e781613160565b9050919050565b6000602082019050818103600083015261360781613183565b9050919050565b60006020820190508181036000830152613627816131a6565b9050919050565b60006020820190508181036000830152613647816131c9565b9050919050565b60006020820190508181036000830152613667816131ec565b9050919050565b600060208201905081810360008301526136878161320f565b9050919050565b600060208201905081810360008301526136a781613232565b9050919050565b600060208201905081810360008301526136c781613255565b9050919050565b600060208201905081810360008301526136e781613278565b9050919050565b600060208201905081810360008301526137078161329b565b9050919050565b60006020820190508181036000830152613727816132be565b9050919050565b60006020820190508181036000830152613747816132e1565b9050919050565b6000602082019050818103600083015261376781613304565b9050919050565b6000602082019050818103600083015261378781613327565b9050919050565b60006020820190506137a36000830184613397565b92915050565b60006040820190506137be6000830185613397565b6137cb6020830184613397565b9392505050565b60006040820190506137e760008301856133b5565b6137f46020830184613388565b9392505050565b600060208201905061381060008301846133c4565b92915050565b6000819050602082019050919050565b600081519050919050565b600081519050919050565b6000602082019050919050565b600082825260208201905092915050565b600082825260208201905092915050565b600081905092915050565b60006138818261399d565b915061388c8361399d565b9250827fffffffffffffffffffffffffffffffffffffffffffffffffffffffffffffffff038211156138c1576138c0613a80565b5b828201905092915050565b60006138d78261399d565b91506138e28361399d565b9250826138f2576138f1613aaf565b5b828204905092915050565b60006139088261399d565b91506139138361399d565b92508282101561392657613925613a80565b5b828203905092915050565b600061393c82613959565b9050919050565b60008115159050919050565b6000819050919050565b600073ffffffffffffffffffffffffffffffffffffffff82169050919050565b600077ffffffffffffffffffffffffffffffffffffffffffffffff82169050919050565b6000819050919050565b600067ffffffffffffffff82169050919050565b600060ff82169050919050565b60005b838110156139e65780820151818401526020810190506139cb565b838111156139f5576000848401525b50505050565b60006002820490506001821680613a1357607f821691505b60208210811415613a2757613a26613ade565b5b50919050565b6000613a388261399d565b91507fffffffffffffffffffffffffffffffffffffffffffffffffffffffffffffffff821415613a6b57613a6a613a80565b5b600182019050919050565b6000819050919050565b7f4e487b7100000000000000000000000000000000000000000000000000000000600052601160045260246000fd5b7f4e487b7100000000000000000000000000000000000000000000000000000000600052601260045260246000fd5b7f4e487b7100000000000000000000000000000000000000000000000000000000600052602260045260246000fd5b6000601f19601f8301169050919050565b7f5061757361626c653a206e6f7420706175736564000000000000000000000000600082015250565b7f696e76616c6964207369676e6174757265000000000000000000000000000000600082015250565b7f1901000000000000000000000000000000000000000000000000000000000000600082015250565b7f6e6f74207965742064657465726d696e65640000000000000000000000000000600082015250565b7f42455032303a20417070726f76652066726f6d20746865207a65726f2061646460008201527f7265737300000000000000000000000000000000000000000000000000000000602082015250565b7f42455032303a204d696e7420746f20746865207a65726f206164647265737300600082015250565b7f5061757361626c653a2070617573656400000000000000000000000000000000600082015250565b7f696e76616c6964206e6f6e636500000000000000000000000000000000000000600082015250565b7f42455032303a20417070726f766520746f20746865207a65726f20616464726560008201527f7373000000000000000000000000000000000000000000000000000000000000602082015250565b7f42455032303a204275726e2066726f6d20746865207a65726f2061646472657360008201527f7300000000000000000000000000000000000000000000000000000000000000602082015250565b7f42455032303a205472616e7366657220616d6f756e742065786365656473206160008201527f6c6c6f77616e6365000000000000000000000000000000000000000000000000602082015250565b7f42455032303a205472616e736665722066726f6d20746865207a65726f20616460008201527f6472657373000000000000000000000000000000000000000000000000000000602082015250565b7f42455032303a2044656372656173656420616c6c6f77616e63652062656c6f7760008201527f207a65726f000000000000000000000000000000000000000000000000000000602082015250565b7f42455032303a2043617020726561636865642e2043616e6e6f74206d696e7400600082015250565b7f42455032303a204275726e20616d6f756e7420657863656564732062616c616e60008201527f6365000000000000000000000000000000000000000000000000000000000000602082015250565b7f42455032303a205472616e7366657220616d6f756e742065786365656473206260008201527f616c616e63650000000000000000000000000000000000000000000000000000602082015250565b7f42455032303a205472616e7366657220746f20746865207a65726f206164647260008201527f6573730000000000000000000000000000000000000000000000000000000000602082015250565b7f7369676e61747572652065787069726564000000000000000000000000000000600082015250565b613f5f81613931565b8114613f6a57600080fd5b50565b613f768161394f565b8114613f8157600080fd5b50565b613f8d8161399d565b8114613f9857600080fd5b50565b613fa4816139bb565b8114613faf57600080fd5b5056fea26469706673582212202ef9d9d4247c2ba52b5cf8770bcd87f6545fed96d7a7403e94560667e4d7294164736f6c63430008040033",
  "linkReferences": {},
  "deployedLinkReferences": {}
}