{
  "_format": "hh-sol-artifact-1",
  "contractName": "TestToken",
  "sourceName": "contracts/TestToken.sol",
  "abi": [
    {
      "inputs": [
        {
          "internalType": "string",
          "name": "name_",
          "type": "string"
        },
        {
          "internalType": "string",
          "name": "symbol_",
          "type": "string"
        }
      ],
      "stateMutability": "nonpayable",
      "type": "constructor"
    },
    {
      "anonymous": false,
      "inputs": [
        {
          "indexed": true,
          "internalType": "address",
          "name": "from",
          "type": "address"
        },
        {
          "indexed": true,
          "internalType": "address",
          "name": "to",
          "type": "address"
        },
        {
          "indexed": false,
          "internalType": "uint256",
          "name": "value",
          "type": "uint256"
        }
      ],
      "name": "Transfer",
      "type": "event"
    },
    {
      "inputs": [
        {
          "internalType": "address",
          "name": "to",
          "type": "address"
        },
        {
          "internalType": "uint256",
          "name": "amount",
          "type": "uint256"
        }
      ],
      "name": "mint",
      "outputs": [
        {
          "internalType": "bool",
          "name": "",
          "type": "bool"
        }
      ],
      "stateMutability": "nonpayable",
      "type": "function"
    },
    {
      "inputs": [
        {
          "internalType": "address",
          "name": "recipient",
          "type": "address"
        },
        {
          "internalType": "uint256",
          "name": "amount",
          "type": "uint256"
        }
      ],
      "name": "transfer",
      "outputs": [
        {
          "internalType": "bool",
          "name": "",
          "type": "bool"
        }
      ],
      "stateMutability": "nonpayable",
      "type": "function"
    }
  ],
  "bytecode": "0x60806040523480156200001157600080fd5b5060405162000f5f38038062000f5f83398181016040528101906200003791906200038c565b60028054620000469062000583565b80601f0160208091040260200160405190810160405280929190818152602001828054620000749062000583565b8015620000c55780601f106200009957610100808354040283529160200191620000c5565b820191906000526020600020905b815481529060010190602001808311620000a757829003601f168201915b5050505050915060038054620000db9062000583565b80601f0160208091040260200160405190810160405280929190818152602001828054620001099062000583565b80156200015a5780601f106200012e576101008083540402835291602001916200015a565b820191906000526020600020905b8154815290600101906020018083116200013c57829003601f168201915b50505050509050693f870857a3e0e38000006001819055506012600460006101000a81548160ff021916908360ff160217905550620001a233600154620001ab60201b60201c565b505050620006b6565b6000620001bf8383620001c960201b60201c565b6001905092915050565b600073ffffffffffffffffffffffffffffffffffffffff168273ffffffffffffffffffffffffffffffffffffffff1614156200023c576040517f08c379a0000000000000000000000000000000000000000000000000000000008152600401620002339062000437565b60405180910390fd5b8060016000828254620002509190620004e6565b92505081905550806000808473ffffffffffffffffffffffffffffffffffffffff1673ffffffffffffffffffffffffffffffffffffffff1681526020019081526020016000206000828254620002a79190620004e6565b925050819055508173ffffffffffffffffffffffffffffffffffffffff16600073ffffffffffffffffffffffffffffffffffffffff167fddf252ad1be2c89b69c2b068fc378daa952ba7f163c4a11628f55a4df523b3ef836040516200030e919062000459565b60405180910390a35050565b6000620003316200032b846200049f565b62000476565b9050828152602081018484840111156200034a57600080fd5b620003578482856200054d565b509392505050565b600082601f8301126200037157600080fd5b8151620003838482602086016200031a565b91505092915050565b60008060408385031215620003a057600080fd5b600083015167ffffffffffffffff811115620003bb57600080fd5b620003c9858286016200035f565b925050602083015167ffffffffffffffff811115620003e757600080fd5b620003f5858286016200035f565b9150509250929050565b60006200040e601f83620004d5565b91506200041b826200068d565b602082019050919050565b620004318162000543565b82525050565b600060208201905081810360008301526200045281620003ff565b9050919050565b600060208201905062000470600083018462000426565b92915050565b60006200048262000495565b9050620004908282620005b9565b919050565b6000604051905090565b600067ffffffffffffffff821115620004bd57620004bc6200064d565b5b620004c8826200067c565b9050602081019050919050565b600082825260208201905092915050565b6000620004f38262000543565b9150620005008362000543565b9250827fffffffffffffffffffffffffffffffffffffffffffffffffffffffffffffffff03821115620005385762000537620005ef565b5b828201905092915050565b6000819050919050565b60005b838110156200056d57808201518184015260208101905062000550565b838111156200057d576000848401525b50505050565b600060028204905060018216806200059c57607f821691505b60208210811415620005b357620005b26200061e565b5b50919050565b620005c4826200067c565b810181811067ffffffffffffffff82111715620005e657620005e56200064d565b5b80604052505050565b7f4e487b7100000000000000000000000000000000000000000000000000000000600052601160045260246000fd5b7f4e487b7100000000000000000000000000000000000000000000000000000000600052602260045260246000fd5b7f4e487b7100000000000000000000000000000000000000000000000000000000600052604160045260246000fd5b6000601f19601f8301169050919050565b7f42455032303a204d696e7420746f20746865207a65726f206164647265737300600082015250565b61089980620006c66000396000f3fe608060405234801561001057600080fd5b50600436106100365760003560e01c806340c10f191461003b578063a9059cbb1461006b575b600080fd5b610055600480360381019061005091906104a5565b61009b565b604051610062919061058b565b60405180910390f35b610085600480360381019061008091906104a5565b6100b1565b604051610092919061058b565b60405180910390f35b60006100a783836100c8565b6001905092915050565b60006100be338484610210565b6001905092915050565b600073ffffffffffffffffffffffffffffffffffffffff168273ffffffffffffffffffffffffffffffffffffffff161415610138576040517f08c379a000000000000000000000000000000000000000000000000000000000815260040161012f906105c6565b60405180910390fd5b806001600082825461014a9190610652565b92505081905550806000808473ffffffffffffffffffffffffffffffffffffffff1673ffffffffffffffffffffffffffffffffffffffff168152602001908152602001600020600082825461019f9190610652565b925050819055508173ffffffffffffffffffffffffffffffffffffffff16600073ffffffffffffffffffffffffffffffffffffffff167fddf252ad1be2c89b69c2b068fc378daa952ba7f163c4a11628f55a4df523b3ef836040516102049190610626565b60405180910390a35050565b600073ffffffffffffffffffffffffffffffffffffffff168373ffffffffffffffffffffffffffffffffffffffff161415610280576040517f08c379a0000000000000000000000000000000000000000000000000000000008152600401610277906105e6565b60405180910390fd5b600073ffffffffffffffffffffffffffffffffffffffff168273ffffffffffffffffffffffffffffffffffffffff1614156102f0576040517f08c379a00000000000000000000000000000000000000000000000000000000081526004016102e7906105a6565b60405180910390fd5b60008060008573ffffffffffffffffffffffffffffffffffffffff1673ffffffffffffffffffffffffffffffffffffffff16815260200190815260200160002054905081811015610376576040517f08c379a000000000000000000000000000000000000000000000000000000000815260040161036d90610606565b60405180910390fd5b8181036000808673ffffffffffffffffffffffffffffffffffffffff1673ffffffffffffffffffffffffffffffffffffffff16815260200190815260200160002081905550816000808573ffffffffffffffffffffffffffffffffffffffff1673ffffffffffffffffffffffffffffffffffffffff16815260200190815260200160002060008282546104099190610652565b925050819055508273ffffffffffffffffffffffffffffffffffffffff168473ffffffffffffffffffffffffffffffffffffffff167fddf252ad1be2c89b69c2b068fc378daa952ba7f163c4a11628f55a4df523b3ef8460405161046d9190610626565b60405180910390a350505050565b60008135905061048a81610835565b92915050565b60008135905061049f8161084c565b92915050565b600080604083850312156104b857600080fd5b60006104c68582860161047b565b92505060206104d785828601610490565b9150509250929050565b6104ea816106ba565b82525050565b60006104fd602783610641565b91506105088261071f565b604082019050919050565b6000610520601f83610641565b915061052b8261076e565b602082019050919050565b6000610543602983610641565b915061054e82610797565b604082019050919050565b6000610566602a83610641565b9150610571826107e6565b604082019050919050565b610585816106e6565b82525050565b60006020820190506105a060008301846104e1565b92915050565b600060208201905081810360008301526105bf816104f0565b9050919050565b600060208201905081810360008301526105df81610513565b9050919050565b600060208201905081810360008301526105ff81610536565b9050919050565b6000602082019050818103600083015261061f81610559565b9050919050565b600060208201905061063b600083018461057c565b92915050565b600082825260208201905092915050565b600061065d826106e6565b9150610668836106e6565b9250827fffffffffffffffffffffffffffffffffffffffffffffffffffffffffffffffff0382111561069d5761069c6106f0565b5b828201905092915050565b60006106b3826106c6565b9050919050565b60008115159050919050565b600073ffffffffffffffffffffffffffffffffffffffff82169050919050565b6000819050919050565b7f4e487b7100000000000000000000000000000000000000000000000000000000600052601160045260246000fd5b7f54657374546f6b656e3a207472616e7366657220746f20746865207a65726f2060008201527f6164647265737300000000000000000000000000000000000000000000000000602082015250565b7f42455032303a204d696e7420746f20746865207a65726f206164647265737300600082015250565b7f54657374546f6b656e3a207472616e736665722066726f6d20746865207a657260008201527f6f20616464726573730000000000000000000000000000000000000000000000602082015250565b7f54657374546f6b656e3a207472616e7366657220616d6f756e7420657863656560008201527f64732062616c616e636500000000000000000000000000000000000000000000602082015250565b61083e816106a8565b811461084957600080fd5b50565b610855816106e6565b811461086057600080fd5b5056fea264697066735822122036277957d8ace6505fd869d851cbe3eb3f4730f081dbfea56b105c72321f8db064736f6c63430008040033",
  "linkReferences": {},
  "deployedLinkReferences": {}
}